:020000040800F2
:1000000000040020650100086D0100086F01000870
:1000100000000000000000000000000000000000E0
:100020000000000000000000000000007101000856
:1000300000000000000000007301000875010008C6
:100040000000000000000000000000007701000830
:1000500077010008770100087701000877010008A0
:100060000000000000000000000000000000000090
:100070007701000877010008770100080000000000
:100080000000000077010008000000007701000870
:1000900000000000000000000000000077010008E0
:1000A0000000000077010008000000007701000850
:1000B0000000000000000000000000000000000040
:1000C00000F002F800F03EF812A030C808382418FA
:1000D0002D18AC4201D100F035F80FCCA246AB464A
:1000E0000CA730CF2D1B083F3F197C427F1E544484
:1000F0002D090426F441641EAC4201D300F022F81D
:100100000126334200D0FB1A3343984754465D46DC
:10011000DFE70000CC010000DC01000070470000B8
:100120000023002400250026103A01D378C1FBD813
:10013000520700D330C100D50B6070471FB51FBDFB
:1001400010B510BD03488546FFF7F8FF00F072F8C0
:1001500000F025F8000C002003B4FFF7F1FF03BC0A
:1001600000F026F80748804707480047FEE7FEE70B
:10017000FEE7FEE7FEE7FEE704480549034A054BB4
:1001800070470000E9010008C100000800000020DD
:10019000000400200000002070477047704710B531
:1001A0000446C046C0462046FFF7D6FF10BD0000FB
:1001B00001491820ABBEFEE7260002007047000090
:1001C00082B001900199074848430090FFE700BFC3
:1001D000FFE70098411E00910028F8D1FFE702B028
:1001E0007047C046B80B000080B50C4908680C4A3F
:1001F00010400C4A12888018086008680A4A1040AB
:100200000A4A1268D205D209801808600120C00687
:1002100007490860C820FFF7D3FF80BD04100240E3
:100220000000FFFF0001FF1FFFFF00FE4401FF1F52
:1002300008ED00E082B00020019001200002214979
:100240000860FFE71F4800684005002801D4FFE769
:10025000F8E71D49012008600520010708680C2205
:10026000904308601949086804221043082290430B
:100270000860FFE7164800688007002801D4FFE700
:10028000F8E705200107086801221043022398437C
:1002900008601049086890430860FFE70E49086845
:1002A00001225040086000200090FFE700980B49B1
:1002B000884205DCFFE7FFE70098401C0090F5E767
:1002C000ECE7C04600100240341002400C00005021
:1002D0001000005004000050140000501FA107003F
:1002E000F0020008000000200004000020010008C7
:040000050800016589
:00000001FF
