:020000040800F2
:1000000008040020650100086D0100086F01000868
:1000100000000000000000000000000000000000E0
:100020000000000000000000000000007101000856
:1000300000000000000000007301000875010008C6
:100040000000000000000000000000007701000830
:1000500077010008770100087701000877010008A0
:100060000000000000000000000000000000000090
:100070007701000835020008D102000800000000E6
:100080000000000077010008000000007701000870
:1000900000000000000000000000000077010008E0
:1000A0000000000077010008000000007701000850
:1000B0000000000000000000000000000000000040
:1000C00000F002F800F03EF812A030C808382418FA
:1000D0002D18AC4201D100F035F80FCCA246AB464A
:1000E0000CA730CF2D1B083F3F197C427F1E544484
:1000F0002D090426F441641EAC4201D300F022F81D
:100100000126334200D0FB1A3343984754465D46DC
:10011000DFE70000C4020000D402000070470000C6
:100120000023002400250026103A01D378C1FBD813
:10013000520700D330C100D50B6070471FB51FBDFB
:1001400010B510BD03488546FFF7F8FF00F01AF917
:1001500000F025F8000C002003B4FFF7F1FF03BC0A
:1001600000F026F80748804707480047FEE7FEE70B
:10017000FEE7FEE7FEE7FEE704480549034A054BB4
:1001800070470000E9010008C100000808000020D5
:10019000080400200800002070477047704710B521
:1001A0000446C046C0462046FFF7D6FF10BD0000FB
:1001B00001491820ABBEFEE7260002007047000090
:1001C00082B001900199074848430090FFE700BFC3
:1001D000FFE70098411E00910028F8D1FFE702B028
:1001E0007047C046B80B000080B50C4908680C4A3F
:1001F00010400C4A12888018086008680A4A1040AB
:100200000A4A1268D205D209801808600120C00687
:1002100007490860C820FFF7D3FF80BD04100240E3
:100220000000FFFF0001FF1FFFFF00FE4401FF1F52
:1002300008ED00E0D0B502AF6C46E408E400A54646
:100240002D4A11680120814311602C490860414802
:100250000078022832DBFFE73E49002008703F4863
:100260000078C007002812D0FFE73B480078F92843
:1002700007DBFFE73849F92008703849002008708B
:1002800004E035490878401C0870FFE711E0324867
:100290000078002807DCFFE72F49002008702F496D
:1002A0000120087004E02C490878401E0870FFE720
:1002B000FFE7294800782E49086004E025490878BE
:1002C000401C0870FFE7FE1F013EB546D0BDC0468A
:1002D000D0B502AF6C46E408E400A54606490868BC
:1002E0000222904308600120000404490860FE1FB8
:1002F000013EB546D0BDC046102C0140180000504C
:1003000010B514480021017013480170134A0120F0
:100310001070134A1160134B1A68C40222431A600A
:10032000114BEF221A60114BF9221A60104A11602A
:10033000104A1168682319431023994311600E492C
:1003400008600E4A116803200143116040030C4904
:10035000086010BD02000020000000200100002005
:10036000242C014040100240282C01402C2C01403C
:10037000342C0140182C0140002C01400C2C014071
:1003800000E100E080B582B0002001900120000271
:100390000E490860FFE70D4800684005002801D4B9
:1003A000FFE7F8E70A4908680122104308600520C2
:1003B000010708681043022398430860054908684C
:1003C00090430860FFF79CFFFFE7FEE70010024044
:1003D0003410024004000050E80300080000002030
:0803E0000804000020010008E0
:040000050800016589
:00000001FF
