:020000040800F2
:1000000000040020650100086D0100086F01000870
:1000100000000000000000000000000000000000E0
:100020000000000000000000000000007101000856
:1000300000000000000000007301000875010008C6
:100040000000000000000000000000007701000830
:1000500077010008770100087701000877010008A0
:100060000000000000000000000000000000000090
:10007000770100083502000859020008000000005E
:100080000000000077010008000000007701000870
:1000900000000000000000000000000077010008E0
:1000A0000000000077010008000000007701000850
:1000B0000000000000000000000000000000000040
:1000C00000F002F800F03EF812A030C808382418FA
:1000D0002D18AC4201D100F035F80FCCA246AB464A
:1000E0000CA730CF2D1B083F3F197C427F1E544484
:1000F0002D090426F441641EAC4201D300F022F81D
:100100000126334200D0FB1A3343984754465D46DC
:10011000DFE700003C0200004C02000070470000D6
:100120000023002400250026103A01D378C1FBD813
:10013000520700D330C100D50B6070471FB51FBDFB
:1001400010B510BD03488546FFF7F8FF00F0D6F85C
:1001500000F025F8000C002003B4FFF7F1FF03BC0A
:1001600000F026F80748804707480047FEE7FEE70B
:10017000FEE7FEE7FEE7FEE704480549034A054BB4
:1001800070470000E9010008C100000800000020DD
:10019000000400200000002070477047704710B531
:1001A0000446C046C0462046FFF7D6FF10BD0000FB
:1001B00001491820ABBEFEE7260002007047000090
:1001C00082B001900199074848430090FFE700BFC3
:1001D000FFE70098411E00910028F8D1FFE702B028
:1001E0007047C046B80B000080B50C4908680C4A3F
:1001F00010400C4A12888018086008680A4A1040AB
:100200000A4A1268D205D209801808600120C00687
:1002100007490860C820FFF7D3FF80BD04100240E3
:100220000000FFFF0001FF1FFFFF00FE4401FF1F52
:1002300008ED00E0D0B502AF6C46E408E400A54646
:100240000F4A11680120814311600E490860FE1FAA
:10025000013EB546D0BDC046D0B502AF6C46E408FD
:10026000E400A54606490868022290430860012080
:10027000000404490860FE1F013EB546D0BDC046DB
:10028000102C014018000050114900200860114A4C
:1002900011680120C302194311600F4A0F49116010
:1002A0000F4A10491160104AF92111600F4A116874
:1002B000682319431023994311600D4908600D4AC2
:1002C000116803200143116040030B490860704727
:1002D000242C014040100240282C0140BF12000095
:1002E0002C2C014087130000342C0140182C0140B5
:1002F000002C01400C2C014000E100E080B582B0F0
:1003000000200190012000020E490860FFE70D481F
:1003100000684005002801D4FFE7F8E70A490868AB
:1003200001221043086005200107086810430223DA
:10033000984308600549086890430860FFF7A4FFE8
:10034000FFE7FEE7001002403410024004000050B6
:1003500060030008000000200004000020010008E5
:040000050800016589
:00000001FF
