:020000040800F2
:1000000008040020650100086D0100086F01000868
:1000100000000000000000000000000000000000E0
:100020000000000000000000000000007101000856
:10003000000000000000000073010008E901000852
:100040000000000000000000000000007701000830
:1000500077010008770100087701000877010008A0
:100060000000000000000000000000000000000090
:100070007701000877010008770100080000000000
:100080000000000077010008000000007701000870
:1000900000000000000000000000000077010008E0
:1000A0000000000077010008000000007701000850
:1000B0000000000000000000000000000000000040
:1000C00000F002F800F03EF812A030C808382418FA
:1000D0002D18AC4201D100F035F80FCCA246AB464A
:1000E0000CA730CF2D1B083F3F197C427F1E544484
:1000F0002D090426F441641EAC4201D300F022F81D
:100100000126334200D0FB1A3343984754465D46DC
:10011000DFE70000300200004002000070470000EE
:100120000023002400250026103A01D378C1FBD813
:10013000520700D330C100D50B6070471FB51FBDFB
:1001400010B510BD03488546FFF7F8FF00F0A4F88E
:1001500000F025F8000C002003B4FFF7F1FF03BC0A
:1001600000F026F80748804707480047FEE7FEE70B
:10017000FEE7FEE7FEE7FEE704480549034A054BB4
:1001800070470000F5010008C100000808000020C9
:10019000080400200800002070477047704710B521
:1001A0000446C046C0462046FFF7D6FF10BD0000FB
:1001B00001491820ABBEFEE7260002007047000090
:1001C00082B001900199074848430090FFE700BFC3
:1001D000FFE70098411E00910028F8D1FFE702B028
:1001E0007047C046B80B00002A490868401C0860E8
:1001F0007047C04680B50C4908680C4A10400C4A4C
:1002000012888018086008680A4A10400A4A126872
:10021000D205D209801808600120C006074908608D
:10022000C820FFF7CDFF80BD041002400000FFFF93
:100230000001FF1FFFFF00FE4401FF1F08ED00E06B
:100240000549064808600649002008601149086011
:10025000044907200860704714E000E0BF5D00001B
:1002600018E000E010E000E080B582B0019000F0FE
:100270000DF8019940180090FFE700F007F8009989
:10028000884201D2FFE7F8E702B080BD014800686C
:100290007047C0460000002080B586B00020059061
:1002A00025490868012210430860052001070868F5
:1002B000104302239843086020490868904308606F
:1002C000FFF7BEFFFFE71E49049108680122019273
:1002D0001043086032200290FFF7C6FF019A04998C
:1002E0000868120403921043086019204001FFF7C8
:1002F000BBFF019B0298049A116819431160FFF734
:10030000B3FF039A0499086810430860C820FFF7F8
:10031000ABFF019B0298049A116819431160FFF723
:10032000A3FF039A04990868104308607D20C00069
:10033000FFF79AFFC7E7C0463410024004000050A0
:1003400018000050540300080000002008040000BA
:040350002001000880
:040000050800016589
:00000001FF
